{
  "contractName": "NFTToken",
  "abi": [
    {
      "inputs": [],
      "stateMutability": "nonpayable",
      "type": "constructor"
    },
    {
      "anonymous": false,
      "inputs": [
        {
          "indexed": true,
          "internalType": "address",
          "name": "owner",
          "type": "address"
        },
        {
          "indexed": true,
          "internalType": "address",
          "name": "approved",
          "type": "address"
        },
        {
          "indexed": true,
          "internalType": "uint256",
          "name": "tokenId",
          "type": "uint256"
        }
      ],
      "name": "Approval",
      "type": "event"
    },
    {
      "anonymous": false,
      "inputs": [
        {
          "indexed": true,
          "internalType": "address",
          "name": "owner",
          "type": "address"
        },
        {
          "indexed": true,
          "internalType": "address",
          "name": "operator",
          "type": "address"
        },
        {
          "indexed": false,
          "internalType": "bool",
          "name": "approved",
          "type": "bool"
        }
      ],
      "name": "ApprovalForAll",
      "type": "event"
    },
    {
      "anonymous": false,
      "inputs": [
        {
          "indexed": true,
          "internalType": "address",
          "name": "from",
          "type": "address"
        },
        {
          "indexed": true,
          "internalType": "address",
          "name": "to",
          "type": "address"
        },
        {
          "indexed": true,
          "internalType": "uint256",
          "name": "tokenId",
          "type": "uint256"
        }
      ],
      "name": "Transfer",
      "type": "event"
    },
    {
      "inputs": [
        {
          "internalType": "uint256",
          "name": "",
          "type": "uint256"
        }
      ],
      "name": "Items",
      "outputs": [
        {
          "internalType": "uint256",
          "name": "id",
          "type": "uint256"
        },
        {
          "internalType": "address",
          "name": "creator",
          "type": "address"
        },
        {
          "internalType": "string",
          "name": "uri",
          "type": "string"
        }
      ],
      "stateMutability": "view",
      "type": "function",
      "constant": true
    },
    {
      "inputs": [
        {
          "internalType": "address",
          "name": "to",
          "type": "address"
        },
        {
          "internalType": "uint256",
          "name": "tokenId",
          "type": "uint256"
        }
      ],
      "name": "approve",
      "outputs": [],
      "stateMutability": "nonpayable",
      "type": "function"
    },
    {
      "inputs": [
        {
          "internalType": "address",
          "name": "owner",
          "type": "address"
        }
      ],
      "name": "balanceOf",
      "outputs": [
        {
          "internalType": "uint256",
          "name": "",
          "type": "uint256"
        }
      ],
      "stateMutability": "view",
      "type": "function",
      "constant": true
    },
    {
      "inputs": [
        {
          "internalType": "uint256",
          "name": "tokenId",
          "type": "uint256"
        }
      ],
      "name": "getApproved",
      "outputs": [
        {
          "internalType": "address",
          "name": "",
          "type": "address"
        }
      ],
      "stateMutability": "view",
      "type": "function",
      "constant": true
    },
    {
      "inputs": [
        {
          "internalType": "address",
          "name": "owner",
          "type": "address"
        },
        {
          "internalType": "address",
          "name": "operator",
          "type": "address"
        }
      ],
      "name": "isApprovedForAll",
      "outputs": [
        {
          "internalType": "bool",
          "name": "",
          "type": "bool"
        }
      ],
      "stateMutability": "view",
      "type": "function",
      "constant": true
    },
    {
      "inputs": [],
      "name": "name",
      "outputs": [
        {
          "internalType": "string",
          "name": "",
          "type": "string"
        }
      ],
      "stateMutability": "view",
      "type": "function",
      "constant": true
    },
    {
      "inputs": [
        {
          "internalType": "uint256",
          "name": "tokenId",
          "type": "uint256"
        }
      ],
      "name": "ownerOf",
      "outputs": [
        {
          "internalType": "address",
          "name": "",
          "type": "address"
        }
      ],
      "stateMutability": "view",
      "type": "function",
      "constant": true
    },
    {
      "inputs": [
        {
          "internalType": "address",
          "name": "from",
          "type": "address"
        },
        {
          "internalType": "address",
          "name": "to",
          "type": "address"
        },
        {
          "internalType": "uint256",
          "name": "tokenId",
          "type": "uint256"
        }
      ],
      "name": "safeTransferFrom",
      "outputs": [],
      "stateMutability": "nonpayable",
      "type": "function"
    },
    {
      "inputs": [
        {
          "internalType": "address",
          "name": "from",
          "type": "address"
        },
        {
          "internalType": "address",
          "name": "to",
          "type": "address"
        },
        {
          "internalType": "uint256",
          "name": "tokenId",
          "type": "uint256"
        },
        {
          "internalType": "bytes",
          "name": "_data",
          "type": "bytes"
        }
      ],
      "name": "safeTransferFrom",
      "outputs": [],
      "stateMutability": "nonpayable",
      "type": "function"
    },
    {
      "inputs": [
        {
          "internalType": "address",
          "name": "operator",
          "type": "address"
        },
        {
          "internalType": "bool",
          "name": "approved",
          "type": "bool"
        }
      ],
      "name": "setApprovalForAll",
      "outputs": [],
      "stateMutability": "nonpayable",
      "type": "function"
    },
    {
      "inputs": [
        {
          "internalType": "bytes4",
          "name": "interfaceId",
          "type": "bytes4"
        }
      ],
      "name": "supportsInterface",
      "outputs": [
        {
          "internalType": "bool",
          "name": "",
          "type": "bool"
        }
      ],
      "stateMutability": "view",
      "type": "function",
      "constant": true
    },
    {
      "inputs": [],
      "name": "symbol",
      "outputs": [
        {
          "internalType": "string",
          "name": "",
          "type": "string"
        }
      ],
      "stateMutability": "view",
      "type": "function",
      "constant": true
    },
    {
      "inputs": [
        {
          "internalType": "address",
          "name": "from",
          "type": "address"
        },
        {
          "internalType": "address",
          "name": "to",
          "type": "address"
        },
        {
          "internalType": "uint256",
          "name": "tokenId",
          "type": "uint256"
        }
      ],
      "name": "transferFrom",
      "outputs": [],
      "stateMutability": "nonpayable",
      "type": "function"
    },
    {
      "inputs": [
        {
          "internalType": "string",
          "name": "uri",
          "type": "string"
        }
      ],
      "name": "createItem",
      "outputs": [
        {
          "internalType": "uint256",
          "name": "",
          "type": "uint256"
        }
      ],
      "stateMutability": "nonpayable",
      "type": "function"
    },
    {
      "inputs": [
        {
          "internalType": "uint256",
          "name": "tokenId",
          "type": "uint256"
        }
      ],
      "name": "tokenURI",
      "outputs": [
        {
          "internalType": "string",
          "name": "",
          "type": "string"
        }
      ],
      "stateMutability": "view",
      "type": "function",
      "constant": true
    }
  ],
  "bytecode": "0x60806040523480156200001157600080fd5b506040518060400160405280600881526020017f4e4654546f6b656e0000000000000000000000000000000000000000000000008152506040518060400160405280600481526020017f4e46545400000000000000000000000000000000000000000000000000000000815250816000908051906020019062000096929190620000b8565b508060019080519060200190620000af929190620000b8565b505050620001cd565b828054620000c69062000168565b90600052602060002090601f016020900481019282620000ea576000855562000136565b82601f106200010557805160ff191683800117855562000136565b8280016001018555821562000136579182015b828111156200013557825182559160200191906001019062000118565b5b50905062000145919062000149565b5090565b5b80821115620001645760008160009055506001016200014a565b5090565b600060028204905060018216806200018157607f821691505b602082108114156200019857620001976200019e565b5b50919050565b7f4e487b7100000000000000000000000000000000000000000000000000000000600052602260045260246000fd5b61275980620001dd6000396000f3fe608060405234801561001057600080fd5b50600436106100f55760003560e01c806342842e0e11610097578063a22cb46511610066578063a22cb465146102ac578063b88d4fde146102c8578063c87b56dd146102e4578063e985e9c514610314576100f5565b806342842e0e146102125780636352211e1461022e57806370a082311461025e57806395d89b411461028e576100f5565b8063095ea7b3116100d3578063095ea7b31461017857806317b47cc41461019457806323b872dd146101c65780633d54eebb146101e2576100f5565b806301ffc9a7146100fa57806306fdde031461012a578063081812fc14610148575b600080fd5b610114600480360381019061010f9190611ab4565b610344565b6040516101219190612198565b60405180910390f35b610132610426565b60405161013f91906121b3565b60405180910390f35b610162600480360381019061015d9190611b47565b6104b8565b60405161016f9190612131565b60405180910390f35b610192600480360381019061018d9190611a78565b61053d565b005b6101ae60048036038101906101a99190611b47565b610655565b6040516101bd939291906123b0565b60405180910390f35b6101e060048036038101906101db9190611972565b610727565b005b6101fc60048036038101906101f79190611b06565b610787565b6040516102099190612395565b60405180910390f35b61022c60048036038101906102279190611972565b610867565b005b61024860048036038101906102439190611b47565b610887565b6040516102559190612131565b60405180910390f35b6102786004803603810190610273919061190d565b610939565b6040516102859190612395565b60405180910390f35b6102966109f1565b6040516102a391906121b3565b60405180910390f35b6102c660048036038101906102c19190611a3c565b610a83565b005b6102e260048036038101906102dd91906119c1565b610c04565b005b6102fe60048036038101906102f99190611b47565b610c66565b60405161030b91906121b3565b60405180910390f35b61032e60048036038101906103299190611936565b610d56565b60405161033b9190612198565b60405180910390f35b60007f80ac58cd000000000000000000000000000000000000000000000000000000007bffffffffffffffffffffffffffffffffffffffffffffffffffffffff1916827bffffffffffffffffffffffffffffffffffffffffffffffffffffffff1916148061040f57507f5b5e139f000000000000000000000000000000000000000000000000000000007bffffffffffffffffffffffffffffffffffffffffffffffffffffffff1916827bffffffffffffffffffffffffffffffffffffffffffffffffffffffff1916145b8061041f575061041e82610dea565b5b9050919050565b606060008054610435906125f7565b80601f0160208091040260200160405190810160405280929190818152602001828054610461906125f7565b80156104ae5780601f10610483576101008083540402835291602001916104ae565b820191906000526020600020905b81548152906001019060200180831161049157829003601f168201915b5050505050905090565b60006104c382610e54565b610502576040517f08c379a00000000000000000000000000000000000000000000000000000000081526004016104f9906122f5565b60405180910390fd5b6004600083815260200190815260200160002060009054906101000a900473ffffffffffffffffffffffffffffffffffffffff169050919050565b600061054882610887565b90508073ffffffffffffffffffffffffffffffffffffffff168373ffffffffffffffffffffffffffffffffffffffff1614156105b9576040517f08c379a00000000000000000000000000000000000000000000000000000000081526004016105b090612355565b60405180910390fd5b8073ffffffffffffffffffffffffffffffffffffffff166105d8610ec0565b73ffffffffffffffffffffffffffffffffffffffff161480610607575061060681610601610ec0565b610d56565b5b610646576040517f08c379a000000000000000000000000000000000000000000000000000000000815260040161063d90612275565b60405180910390fd5b6106508383610ec8565b505050565b60076020528060005260406000206000915090508060000154908060010160009054906101000a900473ffffffffffffffffffffffffffffffffffffffff16908060020180546106a4906125f7565b80601f01602080910402602001604051908101604052809291908181526020018280546106d0906125f7565b801561071d5780601f106106f25761010080835404028352916020019161071d565b820191906000526020600020905b81548152906001019060200180831161070057829003601f168201915b5050505050905083565b610738610732610ec0565b82610f81565b610777576040517f08c379a000000000000000000000000000000000000000000000000000000000815260040161076e90612375565b60405180910390fd5b61078283838361105f565b505050565b600060066112bb905050600061079d60066112d1565b90506107a933826112df565b60405180606001604052808281526020013373ffffffffffffffffffffffffffffffffffffffff16815260200184815250600760008381526020019081526020016000206000820151816000015560208201518160010160006101000a81548173ffffffffffffffffffffffffffffffffffffffff021916908373ffffffffffffffffffffffffffffffffffffffff160217905550604082015181600201908051906020019061085a929190611731565b5090505080915050919050565b61088283838360405180602001604052806000815250610c04565b505050565b6000806002600084815260200190815260200160002060009054906101000a900473ffffffffffffffffffffffffffffffffffffffff169050600073ffffffffffffffffffffffffffffffffffffffff168173ffffffffffffffffffffffffffffffffffffffff161415610930576040517f08c379a0000000000000000000000000000000000000000000000000000000008152600401610927906122b5565b60405180910390fd5b80915050919050565b60008073ffffffffffffffffffffffffffffffffffffffff168273ffffffffffffffffffffffffffffffffffffffff1614156109aa576040517f08c379a00000000000000000000000000000000000000000000000000000000081526004016109a190612295565b60405180910390fd5b600360008373ffffffffffffffffffffffffffffffffffffffff1673ffffffffffffffffffffffffffffffffffffffff168152602001908152602001600020549050919050565b606060018054610a00906125f7565b80601f0160208091040260200160405190810160405280929190818152602001828054610a2c906125f7565b8015610a795780601f10610a4e57610100808354040283529160200191610a79565b820191906000526020600020905b815481529060010190602001808311610a5c57829003601f168201915b5050505050905090565b610a8b610ec0565b73ffffffffffffffffffffffffffffffffffffffff168273ffffffffffffffffffffffffffffffffffffffff161415610af9576040517f08c379a0000000000000000000000000000000000000000000000000000000008152600401610af090612235565b60405180910390fd5b8060056000610b06610ec0565b73ffffffffffffffffffffffffffffffffffffffff1673ffffffffffffffffffffffffffffffffffffffff16815260200190815260200160002060008473ffffffffffffffffffffffffffffffffffffffff1673ffffffffffffffffffffffffffffffffffffffff16815260200190815260200160002060006101000a81548160ff0219169083151502179055508173ffffffffffffffffffffffffffffffffffffffff16610bb3610ec0565b73ffffffffffffffffffffffffffffffffffffffff167f17307eab39ab6107e8899845ad3d59bd9653f200f220920489ca2b5937696c3183604051610bf89190612198565b60405180910390a35050565b610c15610c0f610ec0565b83610f81565b610c54576040517f08c379a0000000000000000000000000000000000000000000000000000000008152600401610c4b90612375565b60405180910390fd5b610c60848484846112fd565b50505050565b6060610c7182610e54565b610cb0576040517f08c379a0000000000000000000000000000000000000000000000000000000008152600401610ca790612335565b60405180910390fd5b600760008381526020019081526020016000206002018054610cd1906125f7565b80601f0160208091040260200160405190810160405280929190818152602001828054610cfd906125f7565b8015610d4a5780601f10610d1f57610100808354040283529160200191610d4a565b820191906000526020600020905b815481529060010190602001808311610d2d57829003601f168201915b50505050509050919050565b6000600560008473ffffffffffffffffffffffffffffffffffffffff1673ffffffffffffffffffffffffffffffffffffffff16815260200190815260200160002060008373ffffffffffffffffffffffffffffffffffffffff1673ffffffffffffffffffffffffffffffffffffffff16815260200190815260200160002060009054906101000a900460ff16905092915050565b60007f01ffc9a7000000000000000000000000000000000000000000000000000000007bffffffffffffffffffffffffffffffffffffffffffffffffffffffff1916827bffffffffffffffffffffffffffffffffffffffffffffffffffffffff1916149050919050565b60008073ffffffffffffffffffffffffffffffffffffffff166002600084815260200190815260200160002060009054906101000a900473ffffffffffffffffffffffffffffffffffffffff1673ffffffffffffffffffffffffffffffffffffffff1614159050919050565b600033905090565b816004600083815260200190815260200160002060006101000a81548173ffffffffffffffffffffffffffffffffffffffff021916908373ffffffffffffffffffffffffffffffffffffffff160217905550808273ffffffffffffffffffffffffffffffffffffffff16610f3b83610887565b73ffffffffffffffffffffffffffffffffffffffff167f8c5be1e5ebec7d5bd14f71427d1e84f3dd0314c0f7b2291e5b200ac8c7c3b92560405160405180910390a45050565b6000610f8c82610e54565b610fcb576040517f08c379a0000000000000000000000000000000000000000000000000000000008152600401610fc290612255565b60405180910390fd5b6000610fd683610887565b90508073ffffffffffffffffffffffffffffffffffffffff168473ffffffffffffffffffffffffffffffffffffffff16148061104557508373ffffffffffffffffffffffffffffffffffffffff1661102d846104b8565b73ffffffffffffffffffffffffffffffffffffffff16145b8061105657506110558185610d56565b5b91505092915050565b8273ffffffffffffffffffffffffffffffffffffffff1661107f82610887565b73ffffffffffffffffffffffffffffffffffffffff16146110d5576040517f08c379a00000000000000000000000000000000000000000000000000000000081526004016110cc90612315565b60405180910390fd5b600073ffffffffffffffffffffffffffffffffffffffff168273ffffffffffffffffffffffffffffffffffffffff161415611145576040517f08c379a000000000000000000000000000000000000000000000000000000000815260040161113c90612215565b60405180910390fd5b611150838383611359565b61115b600082610ec8565b6001600360008573ffffffffffffffffffffffffffffffffffffffff1673ffffffffffffffffffffffffffffffffffffffff16815260200190815260200160002060008282546111ab919061250d565b925050819055506001600360008473ffffffffffffffffffffffffffffffffffffffff1673ffffffffffffffffffffffffffffffffffffffff168152602001908152602001600020600082825461120291906124b7565b92505081905550816002600083815260200190815260200160002060006101000a81548173ffffffffffffffffffffffffffffffffffffffff021916908373ffffffffffffffffffffffffffffffffffffffff160217905550808273ffffffffffffffffffffffffffffffffffffffff168473ffffffffffffffffffffffffffffffffffffffff167fddf252ad1be2c89b69c2b068fc378daa952ba7f163c4a11628f55a4df523b3ef60405160405180910390a4505050565b6001816000016000828254019250508190555050565b600081600001549050919050565b6112f982826040518060200160405280600081525061135e565b5050565b61130884848461105f565b611314848484846113b9565b611353576040517f08c379a000000000000000000000000000000000000000000000000000000000815260040161134a906121d5565b60405180910390fd5b50505050565b505050565b6113688383611550565b61137560008484846113b9565b6113b4576040517f08c379a00000000000000000000000000000000000000000000000000000000081526004016113ab906121d5565b60405180910390fd5b505050565b60006113da8473ffffffffffffffffffffffffffffffffffffffff1661171e565b15611543578373ffffffffffffffffffffffffffffffffffffffff1663150b7a02611403610ec0565b8786866040518563ffffffff1660e01b8152600401611425949392919061214c565b602060405180830381600087803b15801561143f57600080fd5b505af192505050801561147057506040513d601f19601f8201168201806040525081019061146d9190611add565b60015b6114f3573d80600081146114a0576040519150601f19603f3d011682016040523d82523d6000602084013e6114a5565b606091505b506000815114156114eb576040517f08c379a00000000000000000000000000000000000000000000000000000000081526004016114e2906121d5565b60405180910390fd5b805181602001fd5b63150b7a0260e01b7bffffffffffffffffffffffffffffffffffffffffffffffffffffffff1916817bffffffffffffffffffffffffffffffffffffffffffffffffffffffff191614915050611548565b600190505b949350505050565b600073ffffffffffffffffffffffffffffffffffffffff168273ffffffffffffffffffffffffffffffffffffffff1614156115c0576040517f08c379a00000000000000000000000000000000000000000000000000000000081526004016115b7906122d5565b60405180910390fd5b6115c981610e54565b15611609576040517f08c379a0000000000000000000000000000000000000000000000000000000008152600401611600906121f5565b60405180910390fd5b61161560008383611359565b6001600360008473ffffffffffffffffffffffffffffffffffffffff1673ffffffffffffffffffffffffffffffffffffffff168152602001908152602001600020600082825461166591906124b7565b92505081905550816002600083815260200190815260200160002060006101000a81548173ffffffffffffffffffffffffffffffffffffffff021916908373ffffffffffffffffffffffffffffffffffffffff160217905550808273ffffffffffffffffffffffffffffffffffffffff16600073ffffffffffffffffffffffffffffffffffffffff167fddf252ad1be2c89b69c2b068fc378daa952ba7f163c4a11628f55a4df523b3ef60405160405180910390a45050565b600080823b905060008111915050919050565b82805461173d906125f7565b90600052602060002090601f01602090048101928261175f57600085556117a6565b82601f1061177857805160ff19168380011785556117a6565b828001600101855582156117a6579182015b828111156117a557825182559160200191906001019061178a565b5b5090506117b391906117b7565b5090565b5b808211156117d05760008160009055506001016117b8565b5090565b60006117e76117e28461241f565b6123ee565b9050828152602081018484840111156117ff57600080fd5b61180a8482856125b5565b509392505050565b60006118256118208461244f565b6123ee565b90508281526020810184848401111561183d57600080fd5b6118488482856125b5565b509392505050565b60008135905061185f816126c7565b92915050565b600081359050611874816126de565b92915050565b600081359050611889816126f5565b92915050565b60008151905061189e816126f5565b92915050565b600082601f8301126118b557600080fd5b81356118c58482602086016117d4565b91505092915050565b600082601f8301126118df57600080fd5b81356118ef848260208601611812565b91505092915050565b6000813590506119078161270c565b92915050565b60006020828403121561191f57600080fd5b600061192d84828501611850565b91505092915050565b6000806040838503121561194957600080fd5b600061195785828601611850565b925050602061196885828601611850565b9150509250929050565b60008060006060848603121561198757600080fd5b600061199586828701611850565b93505060206119a686828701611850565b92505060406119b7868287016118f8565b9150509250925092565b600080600080608085870312156119d757600080fd5b60006119e587828801611850565b94505060206119f687828801611850565b9350506040611a07878288016118f8565b925050606085013567ffffffffffffffff811115611a2457600080fd5b611a30878288016118a4565b91505092959194509250565b60008060408385031215611a4f57600080fd5b6000611a5d85828601611850565b9250506020611a6e85828601611865565b9150509250929050565b60008060408385031215611a8b57600080fd5b6000611a9985828601611850565b9250506020611aaa858286016118f8565b9150509250929050565b600060208284031215611ac657600080fd5b6000611ad48482850161187a565b91505092915050565b600060208284031215611aef57600080fd5b6000611afd8482850161188f565b91505092915050565b600060208284031215611b1857600080fd5b600082013567ffffffffffffffff811115611b3257600080fd5b611b3e848285016118ce565b91505092915050565b600060208284031215611b5957600080fd5b6000611b67848285016118f8565b91505092915050565b611b7981612541565b82525050565b611b8881612553565b82525050565b6000611b998261247f565b611ba38185612495565b9350611bb38185602086016125c4565b611bbc816126b6565b840191505092915050565b6000611bd28261248a565b611bdc81856124a6565b9350611bec8185602086016125c4565b611bf5816126b6565b840191505092915050565b6000611c0d6032836124a6565b91507f4552433732313a207472616e7366657220746f206e6f6e20455243373231526560008301527f63656976657220696d706c656d656e74657200000000000000000000000000006020830152604082019050919050565b6000611c73601c836124a6565b91507f4552433732313a20746f6b656e20616c7265616479206d696e746564000000006000830152602082019050919050565b6000611cb36024836124a6565b91507f4552433732313a207472616e7366657220746f20746865207a65726f2061646460008301527f72657373000000000000000000000000000000000000000000000000000000006020830152604082019050919050565b6000611d196019836124a6565b91507f4552433732313a20617070726f766520746f2063616c6c6572000000000000006000830152602082019050919050565b6000611d59602c836124a6565b91507f4552433732313a206f70657261746f7220717565727920666f72206e6f6e657860008301527f697374656e7420746f6b656e00000000000000000000000000000000000000006020830152604082019050919050565b6000611dbf6038836124a6565b91507f4552433732313a20617070726f76652063616c6c6572206973206e6f74206f7760008301527f6e6572206e6f7220617070726f76656420666f7220616c6c00000000000000006020830152604082019050919050565b6000611e25602a836124a6565b91507f4552433732313a2062616c616e636520717565727920666f7220746865207a6560008301527f726f2061646472657373000000000000000000000000000000000000000000006020830152604082019050919050565b6000611e8b6029836124a6565b91507f4552433732313a206f776e657220717565727920666f72206e6f6e657869737460008301527f656e7420746f6b656e00000000000000000000000000000000000000000000006020830152604082019050919050565b6000611ef16020836124a6565b91507f4552433732313a206d696e7420746f20746865207a65726f20616464726573736000830152602082019050919050565b6000611f31602c836124a6565b91507f4552433732313a20617070726f76656420717565727920666f72206e6f6e657860008301527f697374656e7420746f6b656e00000000000000000000000000000000000000006020830152604082019050919050565b6000611f976029836124a6565b91507f4552433732313a207472616e73666572206f6620746f6b656e2074686174206960008301527f73206e6f74206f776e00000000000000000000000000000000000000000000006020830152604082019050919050565b6000611ffd602f836124a6565b91507f4552433732314d657461646174613a2055524920717565727920666f72206e6f60008301527f6e6578697374656e7420746f6b656e00000000000000000000000000000000006020830152604082019050919050565b60006120636021836124a6565b91507f4552433732313a20617070726f76616c20746f2063757272656e74206f776e6560008301527f72000000000000000000000000000000000000000000000000000000000000006020830152604082019050919050565b60006120c96031836124a6565b91507f4552433732313a207472616e736665722063616c6c6572206973206e6f74206f60008301527f776e6572206e6f7220617070726f7665640000000000000000000000000000006020830152604082019050919050565b61212b816125ab565b82525050565b60006020820190506121466000830184611b70565b92915050565b60006080820190506121616000830187611b70565b61216e6020830186611b70565b61217b6040830185612122565b818103606083015261218d8184611b8e565b905095945050505050565b60006020820190506121ad6000830184611b7f565b92915050565b600060208201905081810360008301526121cd8184611bc7565b905092915050565b600060208201905081810360008301526121ee81611c00565b9050919050565b6000602082019050818103600083015261220e81611c66565b9050919050565b6000602082019050818103600083015261222e81611ca6565b9050919050565b6000602082019050818103600083015261224e81611d0c565b9050919050565b6000602082019050818103600083015261226e81611d4c565b9050919050565b6000602082019050818103600083015261228e81611db2565b9050919050565b600060208201905081810360008301526122ae81611e18565b9050919050565b600060208201905081810360008301526122ce81611e7e565b9050919050565b600060208201905081810360008301526122ee81611ee4565b9050919050565b6000602082019050818103600083015261230e81611f24565b9050919050565b6000602082019050818103600083015261232e81611f8a565b9050919050565b6000602082019050818103600083015261234e81611ff0565b9050919050565b6000602082019050818103600083015261236e81612056565b9050919050565b6000602082019050818103600083015261238e816120bc565b9050919050565b60006020820190506123aa6000830184612122565b92915050565b60006060820190506123c56000830186612122565b6123d26020830185611b70565b81810360408301526123e48184611bc7565b9050949350505050565b6000604051905081810181811067ffffffffffffffff8211171561241557612414612687565b5b8060405250919050565b600067ffffffffffffffff82111561243a57612439612687565b5b601f19601f8301169050602081019050919050565b600067ffffffffffffffff82111561246a57612469612687565b5b601f19601f8301169050602081019050919050565b600081519050919050565b600081519050919050565b600082825260208201905092915050565b600082825260208201905092915050565b60006124c2826125ab565b91506124cd836125ab565b9250827fffffffffffffffffffffffffffffffffffffffffffffffffffffffffffffffff0382111561250257612501612629565b5b828201905092915050565b6000612518826125ab565b9150612523836125ab565b92508282101561253657612535612629565b5b828203905092915050565b600061254c8261258b565b9050919050565b60008115159050919050565b60007fffffffff0000000000000000000000000000000000000000000000000000000082169050919050565b600073ffffffffffffffffffffffffffffffffffffffff82169050919050565b6000819050919050565b82818337600083830152505050565b60005b838110156125e25780820151818401526020810190506125c7565b838111156125f1576000848401525b50505050565b6000600282049050600182168061260f57607f821691505b6020821081141561262357612622612658565b5b50919050565b7f4e487b7100000000000000000000000000000000000000000000000000000000600052601160045260246000fd5b7f4e487b7100000000000000000000000000000000000000000000000000000000600052602260045260246000fd5b7f4e487b7100000000000000000000000000000000000000000000000000000000600052604160045260246000fd5b6000601f19601f8301169050919050565b6126d081612541565b81146126db57600080fd5b50565b6126e781612553565b81146126f257600080fd5b50565b6126fe8161255f565b811461270957600080fd5b50565b612715816125ab565b811461272057600080fd5b5056fea2646970667358221220a690327e10d61314a8cb342d49ceb4149a70a27003a98307db2b229925a184ee64736f6c63430008000033",
  "immutableReferences": {},
  "source": "// SPDX-License-Identifier: MIT\r\npragma solidity ^0.8.0;\r\n\r\nimport \"../node_modules/@openzeppelin/contracts/token/ERC721/ERC721.sol\";\r\nimport \"../node_modules/@openzeppelin/contracts/utils/Counters.sol\";\r\n\r\n\r\ncontract NFTToken is ERC721 {\r\n\r\n    //we nned to access the counter struct from the counter file\r\n    //this is used as equivelent for us to say id = 0 and then increment\r\n    //in our functions saying id++\r\n    using Counters for Counters.Counter;\r\n    Counters.Counter private _tokenIds;\r\n\r\n    //we need to pass some values into our constructer\r\n    //namely the ERC721 instances for name symbol decimals etc\r\n    constructor () ERC721(\"NFTToken\", \"NFTT\"){}\r\n\r\n    //we now need to initialise our item as a struct\r\n    struct Item {\r\n        uint256 id;\r\n        address creator;\r\n        string uri;\r\n    }\r\n\r\n    //now we need to make a mapping to our user account to the item struct\r\n    mapping(uint256 => Item) public Items; \r\n\r\n    //create item function\r\n    function createItem(string memory uri) public returns (uint256) {\r\n        _tokenIds.increment;\r\n        uint256 newItemId = _tokenIds.current();\r\n\r\n        //we can call mint from the ERC721 contract to mint our nft token\r\n        _safeMint(msg.sender, newItemId);\r\n\r\n        Items[newItemId] = Item(newItemId, msg.sender, uri);\r\n\r\n        return newItemId;\r\n    }\r\n\r\n    //we now need to override the tokenURI function form the ERC721 function to add\r\n    //a piece of extra functionality that is not provided by the base contratc function\r\n    //namely we need return the item url with the id\r\n     function tokenURI(uint256 tokenId) public view  override returns (string memory) {\r\n        require(_exists(tokenId), \"ERC721Metadata: URI query for nonexistent token\");\r\n\r\n        return Items[tokenId].uri;\r\n    }\r\n}",
  "sourcePath": "C:/Users/evanm/OneDrive/Documents/EthereumProgramming/NFT_Marketplace/Backend/contracts/NFTToken.sol",
  "compiler": {
    "name": "solc",
    "version": "0.8.0+commit.c7dfd78e.Emscripten.clang"
  },
  "schemaVersion": "3.3.4",
  "updatedAt": "2021-06-24T12:53:56.912Z",
  "networkType": "ethereum",
  "devdoc": {
    "kind": "dev",
    "methods": {
      "approve(address,uint256)": {
        "details": "See {IERC721-approve}."
      },
      "balanceOf(address)": {
        "details": "See {IERC721-balanceOf}."
      },
      "getApproved(uint256)": {
        "details": "See {IERC721-getApproved}."
      },
      "isApprovedForAll(address,address)": {
        "details": "See {IERC721-isApprovedForAll}."
      },
      "name()": {
        "details": "See {IERC721Metadata-name}."
      },
      "ownerOf(uint256)": {
        "details": "See {IERC721-ownerOf}."
      },
      "safeTransferFrom(address,address,uint256)": {
        "details": "See {IERC721-safeTransferFrom}."
      },
      "safeTransferFrom(address,address,uint256,bytes)": {
        "details": "See {IERC721-safeTransferFrom}."
      },
      "setApprovalForAll(address,bool)": {
        "details": "See {IERC721-setApprovalForAll}."
      },
      "supportsInterface(bytes4)": {
        "details": "See {IERC165-supportsInterface}."
      },
      "symbol()": {
        "details": "See {IERC721Metadata-symbol}."
      },
      "tokenURI(uint256)": {
        "details": "See {IERC721Metadata-tokenURI}."
      },
      "transferFrom(address,address,uint256)": {
        "details": "See {IERC721-transferFrom}."
      }
    },
    "version": 1
  },
  "userdoc": {
    "kind": "user",
    "methods": {},
    "version": 1
  }
}